{
  "abi": [
    {
      "inputs": [
        {
          "internalType": "string",
          "name": "name",
          "type": "string"
        },
        {
          "internalType": "string",
          "name": "version",
          "type": "string"
        }
      ],
      "stateMutability": "nonpayable",
      "type": "constructor"
    },
    {
      "inputs": [],
      "name": "_domainSeparator",
      "outputs": [
        {
          "internalType": "bytes32",
          "name": "",
          "type": "bytes32"
        }
      ],
      "stateMutability": "view",
      "type": "function"
    },
    {
      "inputs": [
        {
          "internalType": "bytes32",
          "name": "structHash",
          "type": "bytes32"
        }
      ],
      "name": "_toTypedDataHash",
      "outputs": [
        {
          "internalType": "bytes32",
          "name": "",
          "type": "bytes32"
        }
      ],
      "stateMutability": "nonpayable",
      "type": "function"
    }
  ],
  "bytecode": {
    "object": "0x608060405234801561001057600080fd5b5060405161021138038061021183398101604081905261002f916100f1565b5050610154565b634e487b7160e01b600052604160045260246000fd5b600082601f83011261005d57600080fd5b81516001600160401b038082111561007757610077610036565b604051601f8301601f19908116603f0116810190828211818310171561009f5761009f610036565b816040528381526020925086838588010111156100bb57600080fd5b600091505b838210156100dd57858201830151818301840152908201906100c0565b600093810190920192909252949350505050565b6000806040838503121561010457600080fd5b82516001600160401b038082111561011b57600080fd5b6101278683870161004c565b9350602085015191508082111561013d57600080fd5b5061014a8582860161004c565b9150509250929050565b60af806101626000396000f3fe6080604052348015600f57600080fd5b506004361060325760003560e01c80631d9a90a6146037578063d46ae8e214605a575b600080fd5b604860423660046061565b50600090565b60405190815260200160405180910390f35b6000546048565b600060208284031215607257600080fd5b503591905056fea26469706673582212206b39e3eca0df59d369cd4e6e474c3c9be2c9d44aa62492fe0348dbe1dd67597764736f6c63430008130033",
    "linkReferences": {}
  },
  "methodIdentifiers": {
    "_domainSeparator()": "d46ae8e2",
    "_toTypedDataHash(bytes32)": "1d9a90a6"
  },
  "id": 8
}