{
  "abi": [
    {
      "inputs": [
        {
          "internalType": "string",
          "name": "_name",
          "type": "string"
        },
        {
          "internalType": "string",
          "name": "_symbol",
          "type": "string"
        }
      ],
      "stateMutability": "nonpayable",
      "type": "constructor"
    },
    {
      "anonymous": false,
      "inputs": [],
      "name": "NotPausable",
      "type": "event"
    },
    {
      "anonymous": false,
      "inputs": [],
      "name": "Pause",
      "type": "event"
    },
    {
      "anonymous": false,
      "inputs": [
        {
          "indexed": true,
          "internalType": "address",
          "name": "from",
          "type": "address"
        },
        {
          "indexed": true,
          "internalType": "address",
          "name": "to",
          "type": "address"
        },
        {
          "indexed": false,
          "internalType": "uint256",
          "name": "value",
          "type": "uint256"
        }
      ],
      "name": "Transfer",
      "type": "event"
    },
    {
      "anonymous": false,
      "inputs": [],
      "name": "Unpause",
      "type": "event"
    },
    {
      "anonymous": false,
      "inputs": [
        {
          "indexed": true,
          "internalType": "address",
          "name": "owner",
          "type": "address"
        },
        {
          "indexed": true,
          "internalType": "address",
          "name": "spender",
          "type": "address"
        },
        {
          "indexed": false,
          "internalType": "uint256",
          "name": "value",
          "type": "uint256"
        }
      ],
      "name": "approval",
      "type": "event"
    },
    {
      "inputs": [
        {
          "internalType": "address",
          "name": "owner",
          "type": "address"
        },
        {
          "internalType": "address",
          "name": "spender",
          "type": "address"
        },
        {
          "internalType": "uint256",
          "name": "value",
          "type": "uint256"
        },
        {
          "internalType": "uint256",
          "name": "nonce",
          "type": "uint256"
        },
        {
          "internalType": "uint256",
          "name": "deadline",
          "type": "uint256"
        }
      ],
      "name": "Permit",
      "outputs": [],
      "stateMutability": "nonpayable",
      "type": "function"
    },
    {
      "inputs": [
        {
          "internalType": "address",
          "name": "_owner",
          "type": "address"
        },
        {
          "internalType": "address",
          "name": "_spender",
          "type": "address"
        }
      ],
      "name": "allowance",
      "outputs": [
        {
          "internalType": "uint256",
          "name": "remaining",
          "type": "uint256"
        }
      ],
      "stateMutability": "view",
      "type": "function"
    },
    {
      "inputs": [
        {
          "internalType": "address",
          "name": "_spender",
          "type": "address"
        },
        {
          "internalType": "uint256",
          "name": "_value",
          "type": "uint256"
        }
      ],
      "name": "approve",
      "outputs": [
        {
          "internalType": "bool",
          "name": "success",
          "type": "bool"
        }
      ],
      "stateMutability": "nonpayable",
      "type": "function"
    },
    {
      "inputs": [
        {
          "internalType": "address",
          "name": "_owner",
          "type": "address"
        }
      ],
      "name": "balanceOf",
      "outputs": [
        {
          "internalType": "uint256",
          "name": "",
          "type": "uint256"
        }
      ],
      "stateMutability": "view",
      "type": "function"
    },
    {
      "inputs": [],
      "name": "canPause",
      "outputs": [
        {
          "internalType": "bool",
          "name": "",
          "type": "bool"
        }
      ],
      "stateMutability": "view",
      "type": "function"
    },
    {
      "inputs": [],
      "name": "decimals",
      "outputs": [
        {
          "internalType": "uint8",
          "name": "",
          "type": "uint8"
        }
      ],
      "stateMutability": "view",
      "type": "function"
    },
    {
      "inputs": [],
      "name": "notPausable",
      "outputs": [],
      "stateMutability": "nonpayable",
      "type": "function"
    },
    {
      "inputs": [],
      "name": "owner",
      "outputs": [
        {
          "internalType": "address",
          "name": "",
          "type": "address"
        }
      ],
      "stateMutability": "view",
      "type": "function"
    },
    {
      "inputs": [],
      "name": "pause",
      "outputs": [],
      "stateMutability": "nonpayable",
      "type": "function"
    },
    {
      "inputs": [],
      "name": "paused",
      "outputs": [
        {
          "internalType": "bool",
          "name": "",
          "type": "bool"
        }
      ],
      "stateMutability": "view",
      "type": "function"
    },
    {
      "inputs": [],
      "name": "totalSupply",
      "outputs": [
        {
          "internalType": "uint256",
          "name": "",
          "type": "uint256"
        }
      ],
      "stateMutability": "view",
      "type": "function"
    },
    {
      "inputs": [
        {
          "internalType": "address",
          "name": "_to",
          "type": "address"
        },
        {
          "internalType": "uint256",
          "name": "_value",
          "type": "uint256"
        }
      ],
      "name": "transfer",
      "outputs": [
        {
          "internalType": "bool",
          "name": "success",
          "type": "bool"
        }
      ],
      "stateMutability": "nonpayable",
      "type": "function"
    },
    {
      "inputs": [
        {
          "internalType": "address",
          "name": "_from",
          "type": "address"
        },
        {
          "internalType": "address",
          "name": "_to",
          "type": "address"
        },
        {
          "internalType": "uint256",
          "name": "_value",
          "type": "uint256"
        }
      ],
      "name": "transferFrom",
      "outputs": [
        {
          "internalType": "bool",
          "name": "success",
          "type": "bool"
        }
      ],
      "stateMutability": "nonpayable",
      "type": "function"
    },
    {
      "inputs": [],
      "name": "unpause",
      "outputs": [],
      "stateMutability": "nonpayable",
      "type": "function"
    }
  ],
  "bytecode": {
    "object": "0x60806040526003805461ffff60a81b1916600160b01b1790553480156200002557600080fd5b5060405162000c2d38038062000c2d83398101604081905262000048916200026a565b6003805460ff60a01b1916600960a11b1790556000600255620000753368056bc75e2d631000006200008f565b5050600380546001600160a01b03191633179055620002fc565b600354600160a81b900460ff161580620000b357506003546001600160a01b031633145b620000bd57600080fd5b6001600160a01b038216620001185760405162461bcd60e51b815260206004820152601860248201527f6d696e7420746f20746865207a65726f20616464726573730000000000000000604482015260640160405180910390fd5b80600260008282546200012c9190620002d4565b90915550506001600160a01b038216600090815260208190526040812080548392906200015b908490620002d4565b90915550506040518181526001600160a01b038316906000907fddf252ad1be2c89b69c2b068fc378daa952ba7f163c4a11628f55a4df523b3ef9060200160405180910390a35050565b634e487b7160e01b600052604160045260246000fd5b600082601f830112620001cd57600080fd5b81516001600160401b0380821115620001ea57620001ea620001a5565b604051601f8301601f19908116603f01168101908282118183101715620002155762000215620001a5565b816040528381526020925086838588010111156200023257600080fd5b600091505b8382101562000256578582018301518183018401529082019062000237565b600093810190920192909252949350505050565b600080604083850312156200027e57600080fd5b82516001600160401b03808211156200029657600080fd5b620002a486838701620001bb565b93506020850151915080821115620002bb57600080fd5b50620002ca85828601620001bb565b9150509250929050565b80820180821115620002f657634e487b7160e01b600052601160045260246000fd5b92915050565b610921806200030c6000396000f3fe608060405234801561001057600080fd5b50600436106100ea5760003560e01c80634be8b05e1161008c5780638456cb59116100665780638456cb59146101d15780638da5cb5b146101d9578063a9059cbb14610204578063dd62ed3e1461021757600080fd5b80634be8b05e1461018c5780635c975abb1461019457806370a08231146101a857600080fd5b8063313ce567116100c8578063313ce5671461013c578063323be1c51461015b5780633f4ba83a1461016f57806340336af41461017957600080fd5b8063095ea7b3146100ef57806318160ddd1461011757806323b872dd14610129575b600080fd5b6101026100fd3660046107e3565b610250565b60405190151581526020015b60405180910390f35b6002545b60405190815260200161010e565b61010261013736600461080d565b61033c565b600354600160a01b900460ff1660405160ff909116815260200161010e565b60035461010290600160b01b900460ff1681565b6101776104ef565b005b610177610187366004610849565b61056f565b6101776105a2565b60035461010290600160a81b900460ff1681565b61011b6101b6366004610896565b6001600160a01b031660009081526020819052604090205490565b6101776105f2565b6003546101ec906001600160a01b031681565b6040516001600160a01b03909116815260200161010e565b6101026102123660046107e3565b61068e565b61011b6102253660046108b8565b6001600160a01b03918216600090815260016020908152604080832093909416825291909152205490565b600354600090600160a81b900460ff16158061027657506003546001600160a01b031633145b61027f57600080fd5b6001600160a01b0383166102da5760405162461bcd60e51b815260206004820152601b60248201527f617070726f766520746f20746865207a65726f2061646472657373000000000060448201526064015b60405180910390fd5b3360008181526001602090815260408083206001600160a01b03881680855290835292819020869055518581529192917f5c52a5f2b86fd16be577188b5a83ef1165faddc00b137b10285f16162e17792a91015b60405180910390a392915050565b600354600090600160a81b900460ff16158061036257506003546001600160a01b031633145b61036b57600080fd5b6001600160a01b0384166103c15760405162461bcd60e51b815260206004820152601e60248201527f7472616e736665722066726f6d20746865207a65726f2061646472657373000060448201526064016102d1565b6001600160a01b0383166104175760405162461bcd60e51b815260206004820152601c60248201527f7472616e7366657220746f20746865207a65726f20616464726573730000000060448201526064016102d1565b6001600160a01b03841660009081526020819052604090205482111561043c57600080fd5b6001600160a01b038416600090815260016020908152604080832033845290915290205482111561046c57600080fd5b6001600160a01b03848116600081815260208181526040808320805488900390559387168083528483208054880190558383526001825284832033845282529184902080548790039055925185815290927fddf252ad1be2c89b69c2b068fc378daa952ba7f163c4a11628f55a4df523b3ef910160405180910390a39392505050565b6003546001600160a01b0316331461050657600080fd5b600354600160a81b900460ff1661051c57600080fd5b600354600160a81b900460ff16151560011461053757600080fd5b6003805460ff60a81b191690556040517f7805862f689e2f13df9f062ff482ad3ad112aca9e0847911ed832e158c525b3390600090a1565b600354600160a81b900460ff16158061059257506003546001600160a01b031633145b61059b57600080fd5b5050505050565b6003546001600160a01b031633146105b957600080fd5b6003805461ffff60a81b191690556040517faff39f66825d4448497d384dee3f4a3adf00a622960add00806503ae4ccee01c90600090a1565b6003546001600160a01b0316331461060957600080fd5b600354600160a81b900460ff16158061062c57506003546001600160a01b031633145b61063557600080fd5b600354600160b01b900460ff16151560011461065057600080fd5b6003805460ff60a81b1916600160a81b1790556040517f6985a02210a168e66602d3235cb6db0e70f92b3ba4d376a33c0f3d9434bff62590600090a1565b600354600090600160a81b900460ff1615806106b457506003546001600160a01b031633145b6106bd57600080fd5b6001600160a01b0383166107135760405162461bcd60e51b815260206004820152601c60248201527f7472616e7366657220746f20746865207a65726f20616464726573730000000060448201526064016102d1565b3360009081526020819052604090205482111561076a5760405162461bcd60e51b815260206004820152601560248201527476616c756520657863656564732062616c616e636560581b60448201526064016102d1565b33600081815260208181526040808320805487900390556001600160a01b03871680845292819020805487019055518581529192917fddf252ad1be2c89b69c2b068fc378daa952ba7f163c4a11628f55a4df523b3ef910161032e565b80356001600160a01b03811681146107de57600080fd5b919050565b600080604083850312156107f657600080fd5b6107ff836107c7565b946020939093013593505050565b60008060006060848603121561082257600080fd5b61082b846107c7565b9250610839602085016107c7565b9150604084013590509250925092565b600080600080600060a0868803121561086157600080fd5b61086a866107c7565b9450610878602087016107c7565b94979496505050506040830135926060810135926080909101359150565b6000602082840312156108a857600080fd5b6108b1826107c7565b9392505050565b600080604083850312156108cb57600080fd5b6108d4836107c7565b91506108e2602084016107c7565b9050925092905056fea2646970667358221220f75ed6d5a734656667a61f69329abac1e55a7a0da1c6b453a3d01a8f4d76f81b64736f6c63430008130033",
    "linkReferences": {}
  },
  "methodIdentifiers": {
    "Permit(address,address,uint256,uint256,uint256)": "40336af4",
    "allowance(address,address)": "dd62ed3e",
    "approve(address,uint256)": "095ea7b3",
    "balanceOf(address)": "70a08231",
    "canPause()": "323be1c5",
    "decimals()": "313ce567",
    "notPausable()": "4be8b05e",
    "owner()": "8da5cb5b",
    "pause()": "8456cb59",
    "paused()": "5c975abb",
    "totalSupply()": "18160ddd",
    "transfer(address,uint256)": "a9059cbb",
    "transferFrom(address,address,uint256)": "23b872dd",
    "unpause()": "3f4ba83a"
  },
  "id": 7
}